{
  "contractName": "MyContract",
  "abi": [
    {
      "constant": true,
      "inputs": [
        {
          "internalType": "address",
          "name": "",
          "type": "address"
        }
      ],
      "name": "balances",
      "outputs": [
        {
          "internalType": "int256",
          "name": "",
          "type": "int256"
        }
      ],
      "payable": false,
      "stateMutability": "view",
      "type": "function"
    },
    {
      "constant": true,
      "inputs": [],
      "name": "getBalance",
      "outputs": [
        {
          "internalType": "int256",
          "name": "",
          "type": "int256"
        }
      ],
      "payable": false,
      "stateMutability": "view",
      "type": "function"
    },
    {
      "constant": false,
      "inputs": [
        {
          "internalType": "int256",
          "name": "ammount",
          "type": "int256"
        }
      ],
      "name": "deposit",
      "outputs": [],
      "payable": false,
      "stateMutability": "nonpayable",
      "type": "function"
    },
    {
      "constant": false,
      "inputs": [
        {
          "internalType": "int256",
          "name": "ammount",
          "type": "int256"
        }
      ],
      "name": "spend",
      "outputs": [],
      "payable": false,
      "stateMutability": "nonpayable",
      "type": "function"
    }
  ],
  "bytecode": "0x608060405234801561001057600080fd5b50610158806100206000396000f3fe608060405234801561001057600080fd5b506004361061004c5760003560e01c806312065fe01461005157806327e235e31461006b5780637ead1f5514610091578063f04991f0146100b0575b600080fd5b6100596100cd565b60408051918252519081900360200190f35b6100596004803603602081101561008157600080fd5b50356001600160a01b03166100e0565b6100ae600480360360208110156100a757600080fd5b50356100f2565b005b6100ae600480360360208110156100c657600080fd5b503561010b565b3360009081526020819052604090205490565b60006020819052908152604090205481565b3360009081526020819052604090208054919091039055565b3360009081526020819052604090208054909101905556fea265627a7a72315820549077fb2f7d7d0e4c3e1e384796425a563260f09fdac8e51d58bca92c02c9d964736f6c63430005100032",
  "source": "pragma solidity >=0.4.21 <0.7.0;\r\n\r\ncontract MyContract {\r\n\r\n    mapping(address => int) public balances;\r\n\r\n    function getBalance() public view returns(int)  {\r\n\r\n        return balances[msg.sender];\r\n    }\r\n\r\n    function deposit(int ammount) public {\r\n\r\n        balances[msg.sender] += ammount;\r\n    }\r\n\r\n    function spend(int ammount) public{\r\n\r\n        balances[msg.sender] -= ammount;\r\n    }\r\n}\r\n",
  "sourcePath": "D:/FACULTATE/Semestrul 6/Blockchain/Plati-Online-Blockchain/contracts/MyContract.sol",
  "compiler": {
    "name": "solc",
    "version": "0.5.16+commit.9c3226ce.Emscripten.clang"
  },
  "schemaVersion": "3.0.22",
  "updatedAt": "2020-04-30T22:57:33.381Z",
  "networkType": "ethereum",
  "devdoc": {
    "methods": {}
  },
  "userdoc": {
    "methods": {}
  }
}