{
  "contractName": "MyContract",
  "abi": [
    {
      "constant": true,
      "inputs": [
        {
          "internalType": "address",
          "name": "",
          "type": "address"
        }
      ],
      "name": "balances",
      "outputs": [
        {
          "internalType": "int256",
          "name": "",
          "type": "int256"
        }
      ],
      "payable": false,
      "stateMutability": "view",
      "type": "function"
    },
    {
      "constant": true,
      "inputs": [
        {
          "internalType": "uint256",
          "name": "",
          "type": "uint256"
        }
      ],
      "name": "bills",
      "outputs": [
        {
          "internalType": "bool",
          "name": "payed",
          "type": "bool"
        },
        {
          "internalType": "int256",
          "name": "code",
          "type": "int256"
        },
        {
          "internalType": "int256",
          "name": "sum",
          "type": "int256"
        },
        {
          "internalType": "string",
          "name": "clientName",
          "type": "string"
        },
        {
          "internalType": "address",
          "name": "clientAddress",
          "type": "address"
        },
        {
          "internalType": "string",
          "name": "companyName",
          "type": "string"
        },
        {
          "internalType": "address",
          "name": "companyAddress",
          "type": "address"
        }
      ],
      "payable": false,
      "stateMutability": "view",
      "type": "function"
    },
    {
      "constant": true,
      "inputs": [
        {
          "internalType": "address",
          "name": "",
          "type": "address"
        }
      ],
      "name": "companies",
      "outputs": [
        {
          "internalType": "string",
          "name": "",
          "type": "string"
        }
      ],
      "payable": false,
      "stateMutability": "view",
      "type": "function"
    },
    {
      "constant": true,
      "inputs": [
        {
          "internalType": "string",
          "name": "",
          "type": "string"
        }
      ],
      "name": "companyAddresses",
      "outputs": [
        {
          "internalType": "address",
          "name": "",
          "type": "address"
        }
      ],
      "payable": false,
      "stateMutability": "view",
      "type": "function"
    },
    {
      "constant": true,
      "inputs": [
        {
          "internalType": "string",
          "name": "",
          "type": "string"
        }
      ],
      "name": "userAddresses",
      "outputs": [
        {
          "internalType": "address",
          "name": "",
          "type": "address"
        }
      ],
      "payable": false,
      "stateMutability": "view",
      "type": "function"
    },
    {
      "constant": true,
      "inputs": [
        {
          "internalType": "address",
          "name": "",
          "type": "address"
        }
      ],
      "name": "users",
      "outputs": [
        {
          "internalType": "string",
          "name": "",
          "type": "string"
        }
      ],
      "payable": false,
      "stateMutability": "view",
      "type": "function"
    },
    {
      "constant": true,
      "inputs": [],
      "name": "getBalance",
      "outputs": [
        {
          "internalType": "int256",
          "name": "",
          "type": "int256"
        }
      ],
      "payable": false,
      "stateMutability": "view",
      "type": "function"
    },
    {
      "constant": true,
      "inputs": [],
      "name": "getClientName",
      "outputs": [
        {
          "internalType": "string",
          "name": "",
          "type": "string"
        }
      ],
      "payable": false,
      "stateMutability": "view",
      "type": "function"
    },
    {
      "constant": true,
      "inputs": [],
      "name": "getCompanyName",
      "outputs": [
        {
          "internalType": "string",
          "name": "",
          "type": "string"
        }
      ],
      "payable": false,
      "stateMutability": "view",
      "type": "function"
    },
    {
      "constant": false,
      "inputs": [
        {
          "internalType": "int256",
          "name": "ammount",
          "type": "int256"
        }
      ],
      "name": "deposit",
      "outputs": [],
      "payable": false,
      "stateMutability": "nonpayable",
      "type": "function"
    },
    {
      "constant": false,
      "inputs": [
        {
          "internalType": "int256",
          "name": "ammount",
          "type": "int256"
        }
      ],
      "name": "spend",
      "outputs": [],
      "payable": false,
      "stateMutability": "nonpayable",
      "type": "function"
    },
    {
      "constant": false,
      "inputs": [
        {
          "internalType": "string",
          "name": "fullName",
          "type": "string"
        }
      ],
      "name": "associateAccountWithUser",
      "outputs": [],
      "payable": false,
      "stateMutability": "nonpayable",
      "type": "function"
    },
    {
      "constant": false,
      "inputs": [
        {
          "internalType": "string",
          "name": "companyName",
          "type": "string"
        }
      ],
      "name": "associateAccountWithCompany",
      "outputs": [],
      "payable": false,
      "stateMutability": "nonpayable",
      "type": "function"
    },
    {
      "constant": false,
      "inputs": [
        {
          "internalType": "int256",
          "name": "billCode",
          "type": "int256"
        },
        {
          "internalType": "int256",
          "name": "billSum",
          "type": "int256"
        },
        {
          "internalType": "string",
          "name": "clientName",
          "type": "string"
        }
      ],
      "name": "registerBill",
      "outputs": [],
      "payable": false,
      "stateMutability": "nonpayable",
      "type": "function"
    },
    {
      "constant": false,
      "inputs": [
        {
          "internalType": "int256",
          "name": "billCode",
          "type": "int256"
        }
      ],
      "name": "payBill",
      "outputs": [],
      "payable": false,
      "stateMutability": "nonpayable",
      "type": "function"
    },
    {
      "constant": true,
      "inputs": [
        {
          "internalType": "int256",
          "name": "billCode",
          "type": "int256"
        }
      ],
      "name": "getBillInfo",
      "outputs": [
        {
          "internalType": "bool",
          "name": "",
          "type": "bool"
        },
        {
          "internalType": "int256",
          "name": "",
          "type": "int256"
        },
        {
          "internalType": "int256",
          "name": "",
          "type": "int256"
        },
        {
          "internalType": "string",
          "name": "",
          "type": "string"
        },
        {
          "internalType": "string",
          "name": "",
          "type": "string"
        }
      ],
      "payable": false,
      "stateMutability": "view",
      "type": "function"
    }
  ],
  "bytecode": "0x608060405234801561001057600080fd5b50611d4b806100206000396000f3fe608060405234801561001057600080fd5b50600436106101005760003560e01c80637b4db84d11610097578063c29f096a11610066578063c29f096a14610633578063e61556d914610747578063f04991f0146107eb578063fd27fe621461080857610100565b80637b4db84d146105385780637c834685146105e85780637ead1f55146105f0578063a87430ba1461060d57610100565b80633c6ece81116100d35780633c6ece811461032657806343cfbd65146103cc578063456e849f146103d45780636e29a2031461047857610100565b806312065fe01461010557806327e235e31461011f57806328bdcde814610145578063355e6ce81461028b575b600080fd5b61010d610825565b60408051918252519081900360200190f35b61010d6004803603602081101561013557600080fd5b50356001600160a01b0316610839565b6101626004803603602081101561015b57600080fd5b503561084b565b604051808815151515815260200187815260200186815260200180602001856001600160a01b03166001600160a01b0316815260200180602001846001600160a01b03166001600160a01b03168152602001838103835287818151815260200191508051906020019080838360005b838110156101e95781810151838201526020016101d1565b50505050905090810190601f1680156102165780820380516001836020036101000a031916815260200191505b50838103825285518152855160209182019187019080838360005b83811015610249578181015183820152602001610231565b50505050905090810190601f1680156102765780820380516001836020036101000a031916815260200191505b50995050505050505050505060405180910390f35b6102b1600480360360208110156102a157600080fd5b50356001600160a01b03166109c3565b6040805160208082528351818301528351919283929083019185019080838360005b838110156102eb5781810151838201526020016102d3565b50505050905090810190601f1680156103185780820380516001836020036101000a031916815260200191505b509250505060405180910390f35b6103ca6004803603602081101561033c57600080fd5b810190602081018135600160201b81111561035657600080fd5b82018360208201111561036857600080fd5b803590602001918460018302840111600160201b8311171561038957600080fd5b91908080601f016020809104026020016040519081016040528093929190818152602001838380828437600092019190915250929550610a5e945050505050565b005b6102b1610cba565b6103ca600480360360208110156103ea57600080fd5b810190602081018135600160201b81111561040457600080fd5b82018360208201111561041657600080fd5b803590602001918460018302840111600160201b8311171561043757600080fd5b91908080601f016020809104026020016040519081016040528093929190818152602001838380828437600092019190915250929550610d5a945050505050565b61051c6004803603602081101561048e57600080fd5b810190602081018135600160201b8111156104a857600080fd5b8201836020820111156104ba57600080fd5b803590602001918460018302840111600160201b831117156104db57600080fd5b91908080601f016020809104026020016040519081016040528093929190818152602001838380828437600092019190915250929550610f55945050505050565b604080516001600160a01b039092168252519081900360200190f35b6103ca6004803603606081101561054e57600080fd5b813591602081013591810190606081016040820135600160201b81111561057457600080fd5b82018360208201111561058657600080fd5b803590602001918460018302840111600160201b831117156105a757600080fd5b91908080601f016020809104026020016040519081016040528093929190818152602001838380828437600092019190915250929550610f7b945050505050565b6102b16113a0565b6103ca6004803603602081101561060657600080fd5b503561140a565b6102b16004803603602081101561062357600080fd5b50356001600160a01b0316611487565b6106506004803603602081101561064957600080fd5b50356114ee565b60405180861515151581526020018581526020018481526020018060200180602001838103835285818151815260200191508051906020019080838360005b838110156106a757818101518382015260200161068f565b50505050905090810190601f1680156106d45780820380516001836020036101000a031916815260200191505b50838103825284518152845160209182019186019080838360005b838110156107075781810151838201526020016106ef565b50505050905090810190601f1680156107345780820380516001836020036101000a031916815260200191505b5097505050505050505060405180910390f35b61051c6004803603602081101561075d57600080fd5b810190602081018135600160201b81111561077757600080fd5b82018360208201111561078957600080fd5b803590602001918460018302840111600160201b831117156107aa57600080fd5b91908080601f0160208091040260200160405190810160405280939291908181526020018383808284376000920191909152509295506116e8945050505050565b6103ca6004803603602081101561080157600080fd5b503561170e565b6103ca6004803603602081101561081e57600080fd5b5035611726565b336000908152602081905260409020545b90565b60006020819052908152604090205481565b6005818154811061085857fe5b60009182526020918290206007919091020180546001808301546002808501546003860180546040805161010097831615979097026000190190911693909304601f810189900489028601890190935282855260ff90951697509195919493918301828280156109095780601f106108de57610100808354040283529160200191610909565b820191906000526020600020905b8154815290600101906020018083116108ec57829003601f168201915b50505050600483015460058401805460408051602060026101006001861615026000190190941693909304601f810184900484028201840190925281815295966001600160a01b0390941695939450908301828280156109aa5780601f1061097f576101008083540402835291602001916109aa565b820191906000526020600020905b81548152906001019060200180831161098d57829003601f168201915b505050600690930154919250506001600160a01b031687565b60036020908152600091825260409182902080548351601f600260001961010060018616150201909316929092049182018490048402810184019094528084529091830182828015610a565780601f10610a2b57610100808354040283529160200191610a56565b820191906000526020600020905b815481529060010190602001808311610a3957829003601f168201915b505050505081565b60006001600160a01b03166002826040518082805190602001908083835b60208310610a9b5780518252601f199092019160209182019101610a7c565b51815160209384036101000a60001901801990921691161790529201948552506040519384900301909220546001600160a01b0316929092149150610b1390505760405162461bcd60e51b8152600401808060200182810382526032815260200180611ce56032913960400191505060405180910390fd5b336000908152600160208190526040909120546002918116156101000260001901160415610c17576000600260016000336001600160a01b03166001600160a01b031681526020019081526020016000206040518082805460018160011615610100020316600290048015610bbf5780601f10610b9d576101008083540402835291820191610bbf565b820191906000526020600020905b815481529060010190602001808311610bab575b50509283525050604080516020928190038301812080546001600160a01b0319166001600160a01b0395909516949094179093558183018082526000808552338152600190935291209151610c15929190611a40565b505b3360009081526001602090815260409091208251610c3792840190611a40565b50336002826040518082805190602001908083835b60208310610c6b5780518252601f199092019160209182019101610c4c565b51815160209384036101000a6000190180199092169116179052920194855250604051938490030190922080546001600160a01b0319166001600160a01b039490941693909317909255505050565b3360009081526003602090815260409182902080548351601f6002600019610100600186161502019093169290920491820184900484028101840190945280845260609392830182828015610d505780601f10610d2557610100808354040283529160200191610d50565b820191906000526020600020905b815481529060010190602001808311610d3357829003601f168201915b5050505050905090565b60006001600160a01b03166004826040518082805190602001908083835b60208310610d975780518252601f199092019160209182019101610d78565b51815160209384036101000a60001901801990921691161790529201948552506040519384900301909220546001600160a01b0316929092149150610e0f90505760405162461bcd60e51b8152600401808060200182810382526025815260200180611ad96025913960400191505060405180910390fd5b336000908152600360205260409020546002600019610100600184161502019091160415610f02573360009081526003602052604080822090518154600492919081908390600260001961010060018416150201909116048015610eaa5780601f10610e88576101008083540402835291820191610eaa565b820191906000526020600020905b815481529060010190602001808311610e96575b50509283525050604080516020928190038301812080546001600160a01b0319166001600160a01b0395909516949094179093558183018082526000808552338152600390935291209151610f00929190611a40565b505b3360009081526003602090815260409091208251610f2292840190611a40565b503360048260405180828051906020019080838360208310610c6b5780518252601f199092019160209182019101610c4c565b80516020818301810180516002825292820191909301209152546001600160a01b031681565b3360009081526003602052604090205460026000196101006001841615020190911604610fd95760405162461bcd60e51b8152600401808060200182810382526047815260200180611b9f6047913960600191505060405180910390fd5b60006001600160a01b03166002826040518082805190602001908083835b602083106110165780518252601f199092019160209182019101610ff7565b51815160209384036101000a60001901801990921691161790529201948552506040519384900301909220546001600160a01b03169290921415915061108f90505760405162461bcd60e51b8152600401808060200182810382526026815260200180611afe6026913960400191505060405180910390fd5b600083136110ce5760405162461bcd60e51b8152600401808060200182810382526036815260200180611b246036913960400191505060405180910390fd5b6000821361110d5760405162461bcd60e51b8152600401808060200182810382526038815260200180611c3d6038913960400191505060405180910390fd5b60006002826040518082805190602001908083835b602083106111415780518252601f199092019160209182019101611122565b518151600019602094850361010090810a8201928316921993909316919091179092529490920196875260408051978890038201882054336000818152600385528390208054601f60026001831615909a02909701169790970494850184900484028a0184019092528389526001600160a01b03169850966060965094509091508301828280156112135780601f106111e857610100808354040283529160200191611213565b820191906000526020600020905b8154815290600101906020018083116111f657829003601f168201915b50506040805160e081018252600080825260208083018e81529383018d8152606084018d81526001600160a01b038d8116608087015260a086018b90528c1660c086015260058054600181018083559190955285517f036b6384b5eca791c62761152d0c79bb0604c104a5fb6f4eb0703f3154bb3db06007909602958601805460ff191691151591909117815596517f036b6384b5eca791c62761152d0c79bb0604c104a5fb6f4eb0703f3154bb3db186015591517f036b6384b5eca791c62761152d0c79bb0604c104a5fb6f4eb0703f3154bb3db2850155518051999a50909893975093955061132b94507f036b6384b5eca791c62761152d0c79bb0604c104a5fb6f4eb0703f3154bb3db3909101920190611a40565b5060808201516004820180546001600160a01b0319166001600160a01b0390921691909117905560a0820151805161136d916005840191602090910190611a40565b5060c09190910151600690910180546001600160a01b0319166001600160a01b0390921691909117905550505050505050565b3360009081526001602081815260409283902080548451600294821615610100026000190190911693909304601f81018390048302840183019094528383526060939091830182828015610d505780601f10610d2557610100808354040283529160200191610d50565b3360009081526020819052604090205481131561146e576040805162461bcd60e51b815260206004820152601c60248201527f4e75206169206465737475692062616e692c207361726163756c652100000000604482015290519081900360640190fd5b3360009081526020819052604090208054919091039055565b60016020818152600092835260409283902080548451600294821615610100026000190190911693909304601f8101839004830284018301909452838352919290830182828015610a565780601f10610a2b57610100808354040283529160200191610a56565b600080806060808280805b60055481101561153957886005828154811061151157fe5b906000526020600020906007020160010154141561153157600191508092505b6001016114f9565b50806115765760405162461bcd60e51b815260040180806020018281038252602b815260200180611c12602b913960400191505060405180910390fd5b60006005838154811061158557fe5b6000918252602091829020600790910201805460018083015460028085015460038601805460408051601f6000199884161561010002989098019092169490940495860189900489028101890190935284835295975060ff90941695919492600588019284919083018282801561163d5780601f106116125761010080835404028352916020019161163d565b820191906000526020600020905b81548152906001019060200180831161162057829003601f168201915b5050845460408051602060026001851615610100026000190190941693909304601f8101849004840282018401909252818152959750869450925084019050828280156116cb5780601f106116a0576101008083540402835291602001916116cb565b820191906000526020600020905b8154815290600101906020018083116116ae57829003601f168201915b505050505090509750975097509750975050505091939590929450565b80516020818301810180516004825292820191909301209152546001600160a01b031681565b33600090815260208190526040902080549091019055565b33600090815260016020819052604090912054600291811615610100026000190116046117845760405162461bcd60e51b8152600401808060200182810382526045815260200180611b5a6045913960600191505060405180910390fd5b600080805b6005548110156117c95783600582815481106117a157fe5b90600052602060002090600702016001015414156117c157600191508092505b600101611789565b50806118065760405162461bcd60e51b815260040180806020018281038252602b815260200180611c12602b913960400191505060405180910390fd5b60006005838154811061181557fe5b90600052602060002090600702019050600260016000336001600160a01b03166001600160a01b0316815260200190815260200160002060405180828054600181600116156101000203166002900480156118a75780601f106118855761010080835404028352918201916118a7565b820191906000526020600020905b815481529060010190602001808311611893575b50509283525050604051908190036020018120546003830180546001600160a01b039092169260029281908390600019600182161561010002011685900480156119285780601f10611906576101008083540402835291820191611928565b820191906000526020600020905b815481529060010190602001808311611914575b50509283525050604051908190036020019020546001600160a01b0316146119815760405162461bcd60e51b815260040180806020018281038252602c815260200180611be6602c913960400191505060405180910390fd5b805460ff16156119c25760405162461bcd60e51b8152600401808060200182810382526024815260200180611c756024913960400191505060405180910390fd5b6002810154336000908152602081905260409020541215611a145760405162461bcd60e51b815260040180806020018281038252604c815260200180611c99604c913960600191505060405180910390fd5b60028101543360009081526020819052604090208054919091039055805460ff19166001179055505050565b828054600181600116156101000203166002900490600052602060002090601f016020900481019282601f10611a8157805160ff1916838001178555611aae565b82800160010185558215611aae579182015b82811115611aae578251825591602001919060010190611a93565b50611aba929150611abe565b5090565b61083691905b80821115611aba5760008155600101611ac456fe44656a6120657869737461206f20636f6d70616e6965206375206163657374206e756d652e4e7520657869737461206e696369756e20636c69656e74206375206e756d656c65206461742e436f64756c20666163747572696920747265627569652073612066696520756e206e756d617220696e7472656720706f7a69746976214e752073756e7465746920696e72656769737472617421204d616920696e7461692061736f63696174692d766120636f6e74756c20637520756e2075736572206e616d652e4e752072657072657a656e74617469206f20636f6d70616e696521204d616920696e7461692061736f63696174692d766120636f6e74756c206375206f20636f6d70616e69652e4e75206176657469206472657074756c20736120706c6174697469206163656173746120666163747572612e4e7520732d61206761736974206e6963696f2066616374757261206176616e6420636f64756c206461742e546f74616c756c20646520706c61746120747265627569652073612066696520756e206e756d617220696e7472656720706f7a6974697621416365617374612066616374757261206120666f73742064656a6120706c61746974612e4e7520646574696e6574692062616e692070656e747275206120706c617469206163656173746120666163747572612120566120727567616d207361206d6169206465706f7a69746174692e4163657374206e756d6520657374652064656a612061736f6369617420637520756e2077616c6c6574206163636f756e742ea265627a7a723158204f3b80b75f56f89014705a32f11955c276d084d9faa2a05b7f6d9849af08b0de64736f6c63430005100032",
  "source": "pragma solidity >=0.4.21 <0.7.0;\r\n\r\ncontract MyContract {\r\n\r\n    struct Bill {\r\n        bool payed;                 // daca s-a platit factura pana acum sau nu\r\n        int code;                   // codul facturii\r\n        int sum;                    // totalul de plata\r\n        string clientName;          // username-ul celui care trebuie sa plateasca factura\r\n        address clientAddress;      // adresa 'wallet account'-ului asociat cu acel username\r\n        string companyName;         // numele companiei ce emite factura\r\n        address companyAddress;     // adresa 'wallet account'-ului asociat companiei\r\n    }\r\n\r\n    // \"array\" cu soldul fiecarui user si companii. Un \"element\" are forma: balances[0xb4517988e64d46218C9cc3E7615A55a73cc5cE09] = 500\r\n    mapping(address => int) public balances;\r\n\r\n    // \"array\" cu numele fiecarui user. Un \"element\" are forma: users[0xb4517988e64d46218C9cc3E7615A55a73cc5cE09] = \"Ion Ionescu\"\r\n    mapping(address => string) public users;\r\n    mapping(string => address) public userAddresses;\r\n\r\n    // \"array\" cu numele fiecarui user. Un \"element\" are forma: companies[0xb4517988e64d46218C9cc3E7615A55a73cc5cE09] = \"Electrik SRL\"\r\n    mapping(address => string) public companies;\r\n    mapping(string => address) public companyAddresses;\r\n\r\n    // array cu facturi\r\n    Bill[] public bills;\r\n\r\n    function getBalance() public view returns(int)  {\r\n\r\n        // returneaza soldul celui care a trimis tranzactia pe blockchain\r\n        return balances[msg.sender];\r\n    }\r\n    function getClientName() public view returns(string memory) {\r\n\r\n        return users[msg.sender];\r\n    }\r\n\r\n    function getCompanyName() public view returns (string memory)\r\n    {\r\n        return companies[msg.sender];\r\n    }\r\n\r\n    function deposit(int ammount) public {\r\n\r\n        balances[msg.sender] += ammount;\r\n    }\r\n\r\n    // Sa nu uitam sa stergem functia asta ca nu vom mai avea nevoie de ea! ( folosim payBill() definita mai jos )\r\n    function spend(int ammount) public{\r\n\r\n        require(balances[msg.sender] >= ammount, \"Nu ai destui bani, saracule!\");\r\n\r\n        balances[msg.sender] -= ammount;\r\n    }\r\n\r\n    // \"inregistrarea\" unui user - atasam wallet account-ului (din care se face tranzactia cu ETH) un username\r\n    function associateAccountWithUser(string memory fullName) public {\r\n\r\n        // verificam daca numele de user ales este deja luat\r\n        require(userAddresses[fullName] == address(0), 'Acest nume este deja asociat cu un wallet account.');\r\n\r\n        // dezasociaza contul curent de username-ul lui vechi (daca era asociat inainte cu un alt username)\r\n        if (bytes(users[msg.sender]).length != 0) {\r\n\r\n            userAddresses[users[msg.sender]] = address(0);\r\n            users[msg.sender] = \"\";\r\n        }\r\n\r\n        users[msg.sender] = fullName;\r\n        userAddresses[fullName] = msg.sender;\r\n    }\r\n\r\n    // \"inregistrarea\" unei companii - atasam wallet account-ului (din care se face tranzactia cu ETH) o companie\r\n    function associateAccountWithCompany(string memory companyName) public {\r\n\r\n        // verificam daca numele companiei este deja luat\r\n        require(companyAddresses[companyName] == address(0), 'Deja exista o companie cu acest nume.');\r\n\r\n        // dezasociaza contul curent de compania ei veche (daca era asociat inainte cu o alta companie)\r\n        if (bytes(companies[msg.sender]).length != 0) {\r\n\r\n            companyAddresses[companies[msg.sender]] = address(0);\r\n            companies[msg.sender] = \"\";\r\n        }\r\n\r\n        companies[msg.sender] = companyName;\r\n        companyAddresses[companyName] = msg.sender;\r\n    }\r\n\r\n    function registerBill(int billCode, int billSum, string memory clientName) public {\r\n\r\n        // verificam daca cel care vrea sa inregistreze o factura reprezinta o companie\r\n        require(bytes(companies[msg.sender]).length != 0, \"Nu reprezentati o companie! Mai intai asociati-va contul cu o companie.\");\r\n\r\n        // verificam daca exista vreun client cu numele dat\r\n        require(userAddresses[clientName] != address(0), \"Nu exista niciun client cu numele dat.\");\r\n\r\n        require(billCode > 0, \"Codul facturii trebuie sa fie un numar intreg pozitiv!\");\r\n        require(billSum > 0, \"Totalul de plata trebuie sa fie un numar intreg pozitiv!\");\r\n\r\n        address clientAddress = userAddresses[clientName];\r\n        address companyAddress = msg.sender;\r\n        string memory companyName = companies[msg.sender];\r\n\r\n        bills.push(\r\n            Bill(false, billCode, billSum, clientName, clientAddress, companyName, companyAddress)\r\n        );\r\n    }\r\n\r\n    function payBill(int billCode) public {\r\n\r\n        // verificam daca cel care vrea sa plateasca o factura este un user\r\n        require(bytes(users[msg.sender]).length != 0, \"Nu sunteti inregistrat! Mai intai asociati-va contul cu un user name.\");\r\n\r\n        uint foundBillIndex;\r\n        bool hasFoundBill = false;\r\n        for (uint i = 0; i < bills.length; i++) {\r\n\r\n            if (bills[i].code == billCode) {\r\n                hasFoundBill = true;\r\n                foundBillIndex = i;\r\n            }\r\n        }\r\n\r\n        require(hasFoundBill, \"Nu s-a gasit nicio factura avand codul dat.\");\r\n\r\n        Bill storage bill = bills[foundBillIndex];\r\n\r\n        require(userAddresses[bill.clientName] == userAddresses[users[msg.sender]], \"Nu aveti dreptul sa platiti aceasta factura.\");\r\n\r\n        require(!bill.payed, \"Aceasta factura a fost deja platita.\");\r\n\r\n        require(balances[msg.sender] >= bill.sum, \"Nu detineti bani pentru a plati aceasta factura! Va rugam sa mai depozitati.\");\r\n\r\n        balances[msg.sender] -= bill.sum;\r\n        bill.payed = true;\r\n    }\r\n\r\n    /**\r\n     * IN: billCode (int) Codul facturii\r\n     * OUT (frontend): (array) Informatii despre factura de forma: [true, 1429, 500, \"Ion Ionescu\", \"Electrik SRL\"]\r\n     */\r\n    function getBillInfo(int billCode) public view returns(bool, int, int, string memory, string memory) {\r\n\r\n        uint foundBillIndex;\r\n        bool hasFoundBill = false;\r\n        for (uint i = 0; i < bills.length; i++) {\r\n\r\n            if (bills[i].code == billCode) {\r\n                hasFoundBill = true;\r\n                foundBillIndex = i;\r\n            }\r\n        }\r\n\r\n        require(hasFoundBill, \"Nu s-a gasit nicio factura avand codul dat.\");\r\n\r\n        Bill storage bill = bills[foundBillIndex];\r\n\r\n        return ( bill.payed, bill.code, bill.sum, bill.clientName, bill.companyName );\r\n    }\r\n}\r\n",
  "sourcePath": "C:\\Users\\DC\\Desktop\\Blockchain\\contracts\\MyContract.sol",
  "compiler": {
    "name": "solc",
    "version": "0.5.16+commit.9c3226ce.Emscripten.clang"
  },
  "schemaVersion": "3.0.23",
  "updatedAt": "2020-05-03T16:32:56.479Z",
  "networkType": "ethereum",
  "devdoc": {
    "methods": {}
  },
  "userdoc": {
    "methods": {
      "getBillInfo(int256)": {
        "notice": "IN: billCode (int) Codul facturii OUT (frontend): (array) Informatii despre factura de forma: [true, 1429, 500, \"Ion Ionescu\", \"Electrik SRL\"]"
      }
    }
  }
}