{
  "contractName": "MyContract",
  "abi": [
    {
      "constant": true,
      "inputs": [
        {
          "internalType": "address",
          "name": "",
          "type": "address"
        }
      ],
      "name": "balances",
      "outputs": [
        {
          "internalType": "int256",
          "name": "",
          "type": "int256"
        }
      ],
      "payable": false,
      "stateMutability": "view",
      "type": "function"
    },
    {
      "constant": true,
      "inputs": [
        {
          "internalType": "uint256",
          "name": "",
          "type": "uint256"
        }
      ],
      "name": "bills",
      "outputs": [
        {
          "internalType": "bool",
          "name": "payed",
          "type": "bool"
        },
        {
          "internalType": "int256",
          "name": "code",
          "type": "int256"
        },
        {
          "internalType": "int256",
          "name": "sum",
          "type": "int256"
        },
        {
          "internalType": "string",
          "name": "clientName",
          "type": "string"
        },
        {
          "internalType": "address",
          "name": "clientAddress",
          "type": "address"
        },
        {
          "internalType": "string",
          "name": "companyName",
          "type": "string"
        },
        {
          "internalType": "address",
          "name": "companyAddress",
          "type": "address"
        }
      ],
      "payable": false,
      "stateMutability": "view",
      "type": "function"
    },
    {
      "constant": true,
      "inputs": [
        {
          "internalType": "address",
          "name": "",
          "type": "address"
        }
      ],
      "name": "companies",
      "outputs": [
        {
          "internalType": "string",
          "name": "",
          "type": "string"
        }
      ],
      "payable": false,
      "stateMutability": "view",
      "type": "function"
    },
    {
      "constant": true,
      "inputs": [
        {
          "internalType": "string",
          "name": "",
          "type": "string"
        }
      ],
      "name": "companyAddresses",
      "outputs": [
        {
          "internalType": "address",
          "name": "",
          "type": "address"
        }
      ],
      "payable": false,
      "stateMutability": "view",
      "type": "function"
    },
    {
      "constant": true,
      "inputs": [
        {
          "internalType": "string",
          "name": "",
          "type": "string"
        }
      ],
      "name": "userAddresses",
      "outputs": [
        {
          "internalType": "address",
          "name": "",
          "type": "address"
        }
      ],
      "payable": false,
      "stateMutability": "view",
      "type": "function"
    },
    {
      "constant": true,
      "inputs": [
        {
          "internalType": "address",
          "name": "",
          "type": "address"
        }
      ],
      "name": "users",
      "outputs": [
        {
          "internalType": "string",
          "name": "",
          "type": "string"
        }
      ],
      "payable": false,
      "stateMutability": "view",
      "type": "function"
    },
    {
      "constant": true,
      "inputs": [],
      "name": "getBalance",
      "outputs": [
        {
          "internalType": "int256",
          "name": "",
          "type": "int256"
        }
      ],
      "payable": false,
      "stateMutability": "view",
      "type": "function"
    },
    {
      "constant": false,
      "inputs": [
        {
          "internalType": "int256",
          "name": "ammount",
          "type": "int256"
        }
      ],
      "name": "deposit",
      "outputs": [],
      "payable": false,
      "stateMutability": "nonpayable",
      "type": "function"
    },
    {
      "constant": false,
      "inputs": [
        {
          "internalType": "int256",
          "name": "ammount",
          "type": "int256"
        }
      ],
      "name": "spend",
      "outputs": [],
      "payable": false,
      "stateMutability": "nonpayable",
      "type": "function"
    },
    {
      "constant": false,
      "inputs": [
        {
          "internalType": "string",
          "name": "fullName",
          "type": "string"
        }
      ],
      "name": "associateAccountWithUser",
      "outputs": [],
      "payable": false,
      "stateMutability": "nonpayable",
      "type": "function"
    },
    {
      "constant": false,
      "inputs": [
        {
          "internalType": "string",
          "name": "companyName",
          "type": "string"
        }
      ],
      "name": "associateAccountWithCompany",
      "outputs": [],
      "payable": false,
      "stateMutability": "nonpayable",
      "type": "function"
    },
    {
      "constant": false,
      "inputs": [
        {
          "internalType": "int256",
          "name": "billCode",
          "type": "int256"
        },
        {
          "internalType": "int256",
          "name": "billSum",
          "type": "int256"
        },
        {
          "internalType": "string",
          "name": "clientName",
          "type": "string"
        }
      ],
      "name": "registerBill",
      "outputs": [],
      "payable": false,
      "stateMutability": "nonpayable",
      "type": "function"
    },
    {
      "constant": false,
      "inputs": [
        {
          "internalType": "int256",
          "name": "billCode",
          "type": "int256"
        }
      ],
      "name": "payBill",
      "outputs": [],
      "payable": false,
      "stateMutability": "nonpayable",
      "type": "function"
    },
    {
      "constant": true,
      "inputs": [
        {
          "internalType": "int256",
          "name": "billCode",
          "type": "int256"
        }
      ],
      "name": "getBillInfo",
      "outputs": [
        {
          "internalType": "bool",
          "name": "",
          "type": "bool"
        },
        {
          "internalType": "int256",
          "name": "",
          "type": "int256"
        },
        {
          "internalType": "int256",
          "name": "",
          "type": "int256"
        },
        {
          "internalType": "string",
          "name": "",
          "type": "string"
        },
        {
          "internalType": "string",
          "name": "",
          "type": "string"
        }
      ],
      "payable": false,
      "stateMutability": "view",
      "type": "function"
    }
  ],
  "bytecode": "0x608060405234801561001057600080fd5b50611c1b806100206000396000f3fe608060405234801561001057600080fd5b50600436106100ea5760003560e01c80637b4db84d1161008c578063c29f096a11610066578063c29f096a1461060d578063e61556d914610721578063f04991f0146107c5578063fd27fe62146107e2576100ea565b80637b4db84d1461051a5780637ead1f55146105ca578063a87430ba146105e7576100ea565b8063355e6ce8116100c8578063355e6ce8146102755780633c6ece8114610310578063456e849f146103b65780636e29a2031461045a576100ea565b806312065fe0146100ef57806327e235e31461010957806328bdcde81461012f575b600080fd5b6100f76107ff565b60408051918252519081900360200190f35b6100f76004803603602081101561011f57600080fd5b50356001600160a01b0316610813565b61014c6004803603602081101561014557600080fd5b5035610825565b604051808815151515815260200187815260200186815260200180602001856001600160a01b03166001600160a01b0316815260200180602001846001600160a01b03166001600160a01b03168152602001838103835287818151815260200191508051906020019080838360005b838110156101d35781810151838201526020016101bb565b50505050905090810190601f1680156102005780820380516001836020036101000a031916815260200191505b50838103825285518152855160209182019187019080838360005b8381101561023357818101518382015260200161021b565b50505050905090810190601f1680156102605780820380516001836020036101000a031916815260200191505b50995050505050505050505060405180910390f35b61029b6004803603602081101561028b57600080fd5b50356001600160a01b031661099d565b6040805160208082528351818301528351919283929083019185019080838360005b838110156102d55781810151838201526020016102bd565b50505050905090810190601f1680156103025780820380516001836020036101000a031916815260200191505b509250505060405180910390f35b6103b46004803603602081101561032657600080fd5b810190602081018135600160201b81111561034057600080fd5b82018360208201111561035257600080fd5b803590602001918460018302840111600160201b8311171561037357600080fd5b91908080601f016020809104026020016040519081016040528093929190818152602001838380828437600092019190915250929550610a38945050505050565b005b6103b4600480360360208110156103cc57600080fd5b810190602081018135600160201b8111156103e657600080fd5b8201836020820111156103f857600080fd5b803590602001918460018302840111600160201b8311171561041957600080fd5b91908080601f016020809104026020016040519081016040528093929190818152602001838380828437600092019190915250929550610c94945050505050565b6104fe6004803603602081101561047057600080fd5b810190602081018135600160201b81111561048a57600080fd5b82018360208201111561049c57600080fd5b803590602001918460018302840111600160201b831117156104bd57600080fd5b91908080601f016020809104026020016040519081016040528093929190818152602001838380828437600092019190915250929550610e8f945050505050565b604080516001600160a01b039092168252519081900360200190f35b6103b46004803603606081101561053057600080fd5b813591602081013591810190606081016040820135600160201b81111561055657600080fd5b82018360208201111561056857600080fd5b803590602001918460018302840111600160201b8311171561058957600080fd5b91908080601f016020809104026020016040519081016040528093929190818152602001838380828437600092019190915250929550610eb5945050505050565b6103b4600480360360208110156105e057600080fd5b50356112da565b61029b600480360360208110156105fd57600080fd5b50356001600160a01b0316611357565b61062a6004803603602081101561062357600080fd5b50356113be565b60405180861515151581526020018581526020018481526020018060200180602001838103835285818151815260200191508051906020019080838360005b83811015610681578181015183820152602001610669565b50505050905090810190601f1680156106ae5780820380516001836020036101000a031916815260200191505b50838103825284518152845160209182019186019080838360005b838110156106e15781810151838201526020016106c9565b50505050905090810190601f16801561070e5780820380516001836020036101000a031916815260200191505b5097505050505050505060405180910390f35b6104fe6004803603602081101561073757600080fd5b810190602081018135600160201b81111561075157600080fd5b82018360208201111561076357600080fd5b803590602001918460018302840111600160201b8311171561078457600080fd5b91908080601f0160208091040260200160405190810160405280939291908181526020018383808284376000920191909152509295506115b8945050505050565b6103b4600480360360208110156107db57600080fd5b50356115de565b6103b4600480360360208110156107f857600080fd5b50356115f6565b336000908152602081905260409020545b90565b60006020819052908152604090205481565b6005818154811061083257fe5b60009182526020918290206007919091020180546001808301546002808501546003860180546040805161010097831615979097026000190190911693909304601f810189900489028601890190935282855260ff90951697509195919493918301828280156108e35780601f106108b8576101008083540402835291602001916108e3565b820191906000526020600020905b8154815290600101906020018083116108c657829003601f168201915b50505050600483015460058401805460408051602060026101006001861615026000190190941693909304601f810184900484028201840190925281815295966001600160a01b0390941695939450908301828280156109845780601f1061095957610100808354040283529160200191610984565b820191906000526020600020905b81548152906001019060200180831161096757829003601f168201915b505050600690930154919250506001600160a01b031687565b60036020908152600091825260409182902080548351601f600260001961010060018616150201909316929092049182018490048402810184019094528084529091830182828015610a305780601f10610a0557610100808354040283529160200191610a30565b820191906000526020600020905b815481529060010190602001808311610a1357829003601f168201915b505050505081565b60006001600160a01b03166002826040518082805190602001908083835b60208310610a755780518252601f199092019160209182019101610a56565b51815160209384036101000a60001901801990921691161790529201948552506040519384900301909220546001600160a01b0316929092149150610aed90505760405162461bcd60e51b8152600401808060200182810382526032815260200180611bb56032913960400191505060405180910390fd5b336000908152600160208190526040909120546002918116156101000260001901160415610bf1576000600260016000336001600160a01b03166001600160a01b031681526020019081526020016000206040518082805460018160011615610100020316600290048015610b995780601f10610b77576101008083540402835291820191610b99565b820191906000526020600020905b815481529060010190602001808311610b85575b50509283525050604080516020928190038301812080546001600160a01b0319166001600160a01b0395909516949094179093558183018082526000808552338152600190935291209151610bef929190611910565b505b3360009081526001602090815260409091208251610c1192840190611910565b50336002826040518082805190602001908083835b60208310610c455780518252601f199092019160209182019101610c26565b51815160209384036101000a6000190180199092169116179052920194855250604051938490030190922080546001600160a01b0319166001600160a01b039490941693909317909255505050565b60006001600160a01b03166004826040518082805190602001908083835b60208310610cd15780518252601f199092019160209182019101610cb2565b51815160209384036101000a60001901801990921691161790529201948552506040519384900301909220546001600160a01b0316929092149150610d4990505760405162461bcd60e51b81526004018080602001828103825260258152602001806119a96025913960400191505060405180910390fd5b336000908152600360205260409020546002600019610100600184161502019091160415610e3c573360009081526003602052604080822090518154600492919081908390600260001961010060018416150201909116048015610de45780601f10610dc2576101008083540402835291820191610de4565b820191906000526020600020905b815481529060010190602001808311610dd0575b50509283525050604080516020928190038301812080546001600160a01b0319166001600160a01b0395909516949094179093558183018082526000808552338152600390935291209151610e3a929190611910565b505b3360009081526003602090815260409091208251610e5c92840190611910565b503360048260405180828051906020019080838360208310610c455780518252601f199092019160209182019101610c26565b80516020818301810180516002825292820191909301209152546001600160a01b031681565b3360009081526003602052604090205460026000196101006001841615020190911604610f135760405162461bcd60e51b8152600401808060200182810382526047815260200180611a6f6047913960600191505060405180910390fd5b60006001600160a01b03166002826040518082805190602001908083835b60208310610f505780518252601f199092019160209182019101610f31565b51815160209384036101000a60001901801990921691161790529201948552506040519384900301909220546001600160a01b031692909214159150610fc990505760405162461bcd60e51b81526004018080602001828103825260268152602001806119ce6026913960400191505060405180910390fd5b600083136110085760405162461bcd60e51b81526004018080602001828103825260368152602001806119f46036913960400191505060405180910390fd5b600082136110475760405162461bcd60e51b8152600401808060200182810382526038815260200180611b0d6038913960400191505060405180910390fd5b60006002826040518082805190602001908083835b6020831061107b5780518252601f19909201916020918201910161105c565b518151600019602094850361010090810a8201928316921993909316919091179092529490920196875260408051978890038201882054336000818152600385528390208054601f60026001831615909a02909701169790970494850184900484028a0184019092528389526001600160a01b031698509660609650945090915083018282801561114d5780601f106111225761010080835404028352916020019161114d565b820191906000526020600020905b81548152906001019060200180831161113057829003601f168201915b50506040805160e081018252600080825260208083018e81529383018d8152606084018d81526001600160a01b038d8116608087015260a086018b90528c1660c086015260058054600181018083559190955285517f036b6384b5eca791c62761152d0c79bb0604c104a5fb6f4eb0703f3154bb3db06007909602958601805460ff191691151591909117815596517f036b6384b5eca791c62761152d0c79bb0604c104a5fb6f4eb0703f3154bb3db186015591517f036b6384b5eca791c62761152d0c79bb0604c104a5fb6f4eb0703f3154bb3db2850155518051999a50909893975093955061126594507f036b6384b5eca791c62761152d0c79bb0604c104a5fb6f4eb0703f3154bb3db3909101920190611910565b5060808201516004820180546001600160a01b0319166001600160a01b0390921691909117905560a082015180516112a7916005840191602090910190611910565b5060c09190910151600690910180546001600160a01b0319166001600160a01b0390921691909117905550505050505050565b3360009081526020819052604090205481131561133e576040805162461bcd60e51b815260206004820152601c60248201527f4e75206169206465737475692062616e692c207361726163756c652100000000604482015290519081900360640190fd5b3360009081526020819052604090208054919091039055565b60016020818152600092835260409283902080548451600294821615610100026000190190911693909304601f8101839004830284018301909452838352919290830182828015610a305780601f10610a0557610100808354040283529160200191610a30565b600080806060808280805b6005548110156114095788600582815481106113e157fe5b906000526020600020906007020160010154141561140157600191508092505b6001016113c9565b50806114465760405162461bcd60e51b815260040180806020018281038252602b815260200180611ae2602b913960400191505060405180910390fd5b60006005838154811061145557fe5b6000918252602091829020600790910201805460018083015460028085015460038601805460408051601f6000199884161561010002989098019092169490940495860189900489028101890190935284835295975060ff90941695919492600588019284919083018282801561150d5780601f106114e25761010080835404028352916020019161150d565b820191906000526020600020905b8154815290600101906020018083116114f057829003601f168201915b5050845460408051602060026001851615610100026000190190941693909304601f81018490048402820184019092528181529597508694509250840190508282801561159b5780601f106115705761010080835404028352916020019161159b565b820191906000526020600020905b81548152906001019060200180831161157e57829003601f168201915b505050505090509750975097509750975050505091939590929450565b80516020818301810180516004825292820191909301209152546001600160a01b031681565b33600090815260208190526040902080549091019055565b33600090815260016020819052604090912054600291811615610100026000190116046116545760405162461bcd60e51b8152600401808060200182810382526045815260200180611a2a6045913960600191505060405180910390fd5b600080805b60055481101561169957836005828154811061167157fe5b906000526020600020906007020160010154141561169157600191508092505b600101611659565b50806116d65760405162461bcd60e51b815260040180806020018281038252602b815260200180611ae2602b913960400191505060405180910390fd5b6000600583815481106116e557fe5b90600052602060002090600702019050600260016000336001600160a01b03166001600160a01b0316815260200190815260200160002060405180828054600181600116156101000203166002900480156117775780601f10611755576101008083540402835291820191611777565b820191906000526020600020905b815481529060010190602001808311611763575b50509283525050604051908190036020018120546003830180546001600160a01b039092169260029281908390600019600182161561010002011685900480156117f85780601f106117d65761010080835404028352918201916117f8565b820191906000526020600020905b8154815290600101906020018083116117e4575b50509283525050604051908190036020019020546001600160a01b0316146118515760405162461bcd60e51b815260040180806020018281038252602c815260200180611ab6602c913960400191505060405180910390fd5b805460ff16156118925760405162461bcd60e51b8152600401808060200182810382526024815260200180611b456024913960400191505060405180910390fd5b60028101543360009081526020819052604090205412156118e45760405162461bcd60e51b815260040180806020018281038252604c815260200180611b69604c913960600191505060405180910390fd5b60028101543360009081526020819052604090208054919091039055805460ff19166001179055505050565b828054600181600116156101000203166002900490600052602060002090601f016020900481019282601f1061195157805160ff191683800117855561197e565b8280016001018555821561197e579182015b8281111561197e578251825591602001919060010190611963565b5061198a92915061198e565b5090565b61081091905b8082111561198a576000815560010161199456fe44656a6120657869737461206f20636f6d70616e6965206375206163657374206e756d652e4e7520657869737461206e696369756e20636c69656e74206375206e756d656c65206461742e436f64756c20666163747572696920747265627569652073612066696520756e206e756d617220696e7472656720706f7a69746976214e752073756e7465746920696e72656769737472617421204d616920696e7461692061736f63696174692d766120636f6e74756c20637520756e2075736572206e616d652e4e752072657072657a656e74617469206f20636f6d70616e696521204d616920696e7461692061736f63696174692d766120636f6e74756c206375206f20636f6d70616e69652e4e75206176657469206472657074756c20736120706c6174697469206163656173746120666163747572612e4e7520732d61206761736974206e6963696f2066616374757261206176616e6420636f64756c206461742e546f74616c756c20646520706c61746120747265627569652073612066696520756e206e756d617220696e7472656720706f7a6974697621416365617374612066616374757261206120666f73742064656a6120706c61746974612e4e7520646574696e6574692062616e692070656e747275206120706c617469206163656173746120666163747572612120566120727567616d207361206d6169206465706f7a69746174692e4163657374206e756d6520657374652064656a612061736f6369617420637520756e2077616c6c6574206163636f756e742ea265627a7a723158203e437928e9988949a8a3429c74aed06ce428c51ad9e22687534f6d5d9f5d0c5364736f6c63430005100032",
  "source": "pragma solidity >=0.4.21 <0.7.0;\r\n\r\ncontract MyContract {\r\n\r\n    struct Bill {\r\n        bool payed;                 // daca s-a platit factura pana acum sau nu\r\n        int code;                   // codul facturii\r\n        int sum;                    // totalul de plata\r\n        string clientName;          // username-ul celui care trebuie sa plateasca factura\r\n        address clientAddress;      // adresa 'wallet account'-ului asociat cu acel username\r\n        string companyName;         // numele companiei ce emite factura\r\n        address companyAddress;     // adresa 'wallet account'-ului asociat companiei\r\n    }\r\n\r\n    // \"array\" cu soldul fiecarui user si companii. Un \"element\" are forma: balances[0xb4517988e64d46218C9cc3E7615A55a73cc5cE09] = 500\r\n    mapping(address => int) public balances;\r\n\r\n    // \"array\" cu numele fiecarui user. Un \"element\" are forma: users[0xb4517988e64d46218C9cc3E7615A55a73cc5cE09] = \"Ion Ionescu\"\r\n    mapping(address => string) public users;\r\n    mapping(string => address) public userAddresses;\r\n\r\n    // \"array\" cu numele fiecarui user. Un \"element\" are forma: companies[0xb4517988e64d46218C9cc3E7615A55a73cc5cE09] = \"Electrik SRL\"\r\n    mapping(address => string) public companies;\r\n    mapping(string => address) public companyAddresses;\r\n\r\n    // array cu facturi\r\n    Bill[] public bills;\r\n\r\n    function getBalance() public view returns(int)  {\r\n\r\n        // returneaza soldul celui care a trimis tranzactia pe blockchain\r\n        return balances[msg.sender];\r\n    }\r\n\r\n    function deposit(int ammount) public {\r\n\r\n        balances[msg.sender] += ammount;\r\n    }\r\n\r\n    // Sa nu uitam sa stergem functia asta ca nu vom mai avea nevoie de ea! ( folosim payBill() definita mai jos )\r\n    function spend(int ammount) public{\r\n\r\n        require(balances[msg.sender] >= ammount, \"Nu ai destui bani, saracule!\");\r\n\r\n        balances[msg.sender] -= ammount;\r\n    }\r\n\r\n    // \"inregistrarea\" unui user - atasam wallet account-ului (din care se face tranzactia cu ETH) un username\r\n    function associateAccountWithUser(string memory fullName) public {\r\n\r\n        // verificam daca numele de user ales este deja luat\r\n        require(userAddresses[fullName] == address(0), 'Acest nume este deja asociat cu un wallet account.');\r\n\r\n        // dezasociaza contul curent de username-ul lui vechi (daca era asociat inainte cu un alt username)\r\n        if (bytes(users[msg.sender]).length != 0) {\r\n\r\n            userAddresses[users[msg.sender]] = address(0);\r\n            users[msg.sender] = \"\";\r\n        }\r\n\r\n        users[msg.sender] = fullName;\r\n        userAddresses[fullName] = msg.sender;\r\n    }\r\n\r\n    // \"inregistrarea\" unei companii - atasam wallet account-ului (din care se face tranzactia cu ETH) o companie\r\n    function associateAccountWithCompany(string memory companyName) public {\r\n\r\n        // verificam daca numele companiei este deja luat\r\n        require(companyAddresses[companyName] == address(0), 'Deja exista o companie cu acest nume.');\r\n\r\n        // dezasociaza contul curent de compania ei veche (daca era asociat inainte cu o alta companie)\r\n        if (bytes(companies[msg.sender]).length != 0) {\r\n\r\n            companyAddresses[companies[msg.sender]] = address(0);\r\n            companies[msg.sender] = \"\";\r\n        }\r\n\r\n        companies[msg.sender] = companyName;\r\n        companyAddresses[companyName] = msg.sender;\r\n    }\r\n\r\n    function registerBill(int billCode, int billSum, string memory clientName) public {\r\n\r\n        // verificam daca cel care vrea sa inregistreze o factura reprezinta o companie\r\n        require(bytes(companies[msg.sender]).length != 0, \"Nu reprezentati o companie! Mai intai asociati-va contul cu o companie.\");\r\n\r\n        // verificam daca exista vreun client cu numele dat\r\n        require(userAddresses[clientName] != address(0), \"Nu exista niciun client cu numele dat.\");\r\n\r\n        require(billCode > 0, \"Codul facturii trebuie sa fie un numar intreg pozitiv!\");\r\n        require(billSum > 0, \"Totalul de plata trebuie sa fie un numar intreg pozitiv!\");\r\n\r\n        address clientAddress = userAddresses[clientName];\r\n        address companyAddress = msg.sender;\r\n        string memory companyName = companies[msg.sender];\r\n\r\n        bills.push(\r\n            Bill(false, billCode, billSum, clientName, clientAddress, companyName, companyAddress)\r\n        );\r\n    }\r\n\r\n    function payBill(int billCode) public {\r\n\r\n        // verificam daca cel care vrea sa plateasca o factura este un user\r\n        require(bytes(users[msg.sender]).length != 0, \"Nu sunteti inregistrat! Mai intai asociati-va contul cu un user name.\");\r\n\r\n        uint foundBillIndex;\r\n        bool hasFoundBill = false;\r\n        for (uint i = 0; i < bills.length; i++) {\r\n\r\n            if (bills[i].code == billCode) {\r\n                hasFoundBill = true;\r\n                foundBillIndex = i;\r\n            }\r\n        }\r\n\r\n        require(hasFoundBill, \"Nu s-a gasit nicio factura avand codul dat.\");\r\n\r\n        Bill storage bill = bills[foundBillIndex];\r\n\r\n        require(userAddresses[bill.clientName] == userAddresses[users[msg.sender]], \"Nu aveti dreptul sa platiti aceasta factura.\");\r\n\r\n        require(!bill.payed, \"Aceasta factura a fost deja platita.\");\r\n\r\n        require(balances[msg.sender] >= bill.sum, \"Nu detineti bani pentru a plati aceasta factura! Va rugam sa mai depozitati.\");\r\n\r\n        balances[msg.sender] -= bill.sum;\r\n        bill.payed = true;\r\n    }\r\n\r\n    /**\r\n     * IN: billCode (int) Codul facturii\r\n     * OUT (frontend): (array) Informatii despre factura de forma: [true, 1429, 500, \"Ion Ionescu\", \"Electrik SRL\"]\r\n     */\r\n    function getBillInfo(int billCode) public view returns(bool, int, int, string memory, string memory) {\r\n\r\n        uint foundBillIndex;\r\n        bool hasFoundBill = false;\r\n        for (uint i = 0; i < bills.length; i++) {\r\n\r\n            if (bills[i].code == billCode) {\r\n                hasFoundBill = true;\r\n                foundBillIndex = i;\r\n            }\r\n        }\r\n\r\n        require(hasFoundBill, \"Nu s-a gasit nicio factura avand codul dat.\");\r\n\r\n        Bill storage bill = bills[foundBillIndex];\r\n\r\n        return ( bill.payed, bill.code, bill.sum, bill.clientName, bill.companyName );\r\n    }\r\n}\r\n",
  "sourcePath": "D:/FACULTATE/Semestrul 6/Blockchain/Plati-Online-Blockchain/contracts/MyContract.sol",
  "compiler": {
    "name": "solc",
    "version": "0.5.16+commit.9c3226ce.Emscripten.clang"
  },
  "schemaVersion": "3.0.22",
  "updatedAt": "2020-05-01T11:10:02.217Z",
  "networkType": "ethereum",
  "devdoc": {
    "methods": {}
  },
  "userdoc": {
    "methods": {
      "getBillInfo(int256)": {
        "notice": "IN: billCode (int) Codul facturii OUT (frontend): (array) Informatii despre factura de forma: [true, 1429, 500, \"Ion Ionescu\", \"Electrik SRL\"]"
      }
    }
  }
}