{
  "contractName": "MyContract",
  "abi": [
    {
      "inputs": [],
      "payable": false,
      "stateMutability": "nonpayable",
      "type": "constructor"
    },
    {
      "constant": true,
      "inputs": [],
      "name": "get",
      "outputs": [
        {
          "internalType": "int256",
          "name": "",
          "type": "int256"
        }
      ],
      "payable": false,
      "stateMutability": "view",
      "type": "function"
    },
    {
      "constant": false,
      "inputs": [
        {
          "internalType": "int256",
          "name": "amt",
          "type": "int256"
        }
      ],
      "name": "deposit",
      "outputs": [],
      "payable": false,
      "stateMutability": "nonpayable",
      "type": "function"
    },
    {
      "constant": false,
      "inputs": [
        {
          "internalType": "int256",
          "name": "amt",
          "type": "int256"
        }
      ],
      "name": "spend",
      "outputs": [],
      "payable": false,
      "stateMutability": "nonpayable",
      "type": "function"
    }
  ],
  "bytecode": "0x608060405234801561001057600080fd5b506101f460005560e1806100256000396000f3fe6080604052348015600f57600080fd5b5060043610603c5760003560e01c80636d4ce63c1460415780637ead1f55146059578063f04991f0146075575b600080fd5b6047608f565b60408051918252519081900360200190f35b607360048036036020811015606d57600080fd5b50356095565b005b607360048036036020811015608957600080fd5b503560a1565b60005490565b60008054919091039055565b60008054909101905556fea265627a7a72315820293e8a52d170b204731165d9bf844fd27209214d7741c80701bc004f837a01f664736f6c634300050c0032",
  "source": "pragma solidity >=0.4.21 <0.7.0;\r\n\r\ncontract MyContract {\r\n\r\n   int value;\r\n\r\n  constructor() public {\r\n      value = 500;\r\n  }\r\n\r\n  function get() public view returns(int){\r\n      return value;\r\n  }\r\n\r\n  function deposit(int amt) public{\r\n\r\n      value = value + amt;\r\n  }\r\n  function spend(int amt) public{\r\n\r\n      value = value - amt;\r\n  }\r\n\r\n}\r\n",
  "sourcePath": "C:/Users/DC/Desktop/Blockchain/contracts/MyContract.sol",
  "compiler": {
    "name": "solc",
    "version": "0.5.12+commit.7709ece9.Emscripten.clang"
  },
  "schemaVersion": "3.0.23",
  "updatedAt": "2020-04-26T16:34:21.854Z",
  "networkType": "ethereum",
  "devdoc": {
    "methods": {}
  },
  "userdoc": {
    "methods": {}
  }
}